:020000040800F2
:1000000000C00020E90900080D09000813090008D4
:10001000190900081F090008250900080000000050
:100020000000000000000000000000002B09000894
:1000300039090008000000004709000855090008B8
:10004000390A0008390A0008390A0008390A000884
:10005000390A0008390A0008390A0008390A000874
:10006000390A0008390A0008390A0008390A000864
:10007000390A0008390A0008390A0008390A000854
:100080006109000875090008390A0008390A0008E2
:10009000B1090008390A0008390A0008390A0008BD
:1000A000390A0008390A0008390A0008390A000824
:1000B000890900080000000000000000390A00085B
:1000C000390A0008390A0008390A0008390A000804
:1000D000390A0008390A00089D090008390A000891
:1000E000390A0008390A000800000000000000007A
:1000F0000000000000000000000000000000000000
:1001000000000000390A000800000000390A000859
:100110000000000000000000390A0008390A000849
:10012000390A0008390A0008390A0008390A0008A3
:10013000390A000800000000000000000000000074
:10014000390A0008390A0008390A000800000000CE
:10015000390A0008390A0008390A0008390A000873
:10016000390A0008390A0008390A000800000000AE
:10017000390A0008390A00080000000000000000E9
:0C018000390A0008390A0008390A000892
:10018C0010B5054C237833B9044B13B10448AFF3C5
:10019C0000800123237010BD0C0000200000000023
:1001AC00C436000808B5034B1BB103490348AFF331
:1001BC00008008BD0000000010000020C4360008BC
:1001CC0080B500AF174B184A1A60164B04225A60C0
:1001DC00144B00229A60134B0022DA60114B4FF43F
:1001EC0040221A610F4B4FF480125A610D4B0022C2
:1001FC001A760C4B00225A760A4B00229A76094B3F
:10020C000122DA76074B00221A77064B00225A7726
:10021C00044800F081FC0346002B01D000F047FBA2
:10022C0000BF80BD3C0000200064004080B58AB057
:10023C0000AF786007F1140300221A605A609A60CC
:10024C00DA601A617B681B681B4A934230D11B4BE6
:10025C009B6D1A4A43F000739365184B9B6D03F02A
:10026C0000733B613B69154BDB6C144A43F0020392
:10027C00D364124BDB6C03F00203FB60FB684FF49E
:10028C0040737B610223BB610023FB6103233B6250
:10029C0009237B6207F114031946094801F0CCFCD1
:1002AC0000220021142001F062FB142001F07BFBE2
:1002BC0000BF2837BD4680BD0064004000100240DE
:1002CC000004004880B588B000AF07F10C03002291
:1002DC001A605A609A60DA601A611D4BDB6C1C4A1A
:1002EC0043F08003D3641A4BDB6C03F08003BB60D8
:1002FC00BB68174BDB6C164A43F00103D364144BF9
:10030C00DB6C03F001037B607B68114BDB6C104AE8
:10031C0043F00203D3640E4BDB6C03F002033B602F
:10032C003B68002240210B4801F000FE4023FB609B
:10033C0001233B6100237B610023BB6107F10C03AC
:10034C001946044801F078FC00BF2037BD4680BD3B
:10035C00001002400004004880B483B000AF034694
:10036C00FB71FB79013B102B28D801A252F823F02A
:10037C00C1030008C5030008C1030008C503000839
:10038C00C1030008C5030008C1030008C503000829
:10039C00C1030008C5030008C1030008C503000819
:1003AC00C5030008C1030008C5030008C503000805
:1003BC00C1030008012303E0002301E0034B1B7879
:1003CC0018460C37BD465DF8047B70473900002099
:1003DC0080B582B000AF0346FB710B4AFB791370FA
:1003EC00FB791846FFF7B8FF03461A46074B1A70FD
:1003FC00064B1B781A464021054801F097FD00BFBB
:10040C000837BD4680BD00BF3800002039000020F1
:10041C000004004880B582B000AF00237B600BE085
:10042C000E4A7B68134419780D4A7B6813440A46BC
:10043C001A707B6801337B607B68042BF0DD084B02
:10044C009B781846FFF7C4FF054B9B78184600F0C5
:10045C0019F900BF0837BD4680BD00BF2C00002035
:10046C006400002080B582B000AF0346FB714C4B9A
:10047C001B6801334A4A13604A4B1B78032B00F26A
:10048C008B8001A252F823F0A5040008D7040008C1
:10049C00030500084F050008FB79CC2B6BD1414BB1
:1004AC001B780133DAB23F4B1A703F4B00221A70A3
:1004BC003D4B1B7819463D4AFB7953543A4B1B78FC
:1004CC000133DAB2384B1A7054E0FB79BA2B54D1A1
:1004DC00344B1B780133DAB2324B1A70324B1B7827
:1004EC001946324AFB7953542F4B1B780133DAB23D
:1004FC002D4B1A703EE02C4B1B7819462B4AFB797E
:10050C005354294B1B780133DAB2274B1A70264B04
:10051C001B78032B2DD10321244800F04FF8244BDA
:10052C001A78224BDA70234B1A78204B1A71224B13
:10053C0000221A701B4B1B780133DAB2194B1A705C
:10054C0017E01D4B1B78002B0BD1194B1B78FA793C
:10055C009A4214D1184B1B780133DAB2164B1A702D
:10056C0008E0144B1B78FA799A420AD1FFF752FF34
:10057C0008E000BF10E000BF04E000BF02E000BFD5
:10058C0000E000BF074B00221A70054B00221A60D6
:10059C00054B00221A7000E000BF0837BD4680BD35
:1005AC003400002033000020310000202C000020FB
:1005BC002A000020280000203200002080B487B0E0
:1005CC0000AF7860396000237B6127E07B681B7883
:1005DC00FB60FB681B02FB607B6801337B607A6904
:1005EC00FB6853407B6100233B6114E07B6903F49F
:1005FC000043002B09D07B695B007B617B6983F432
:10060C00815383F001037B6102E07B695B007B61BA
:10061C003B6901333B613B69072BE7D93B68013BE5
:10062C003B603B68002BD1DA7B69C3F30D037B6124
:10063C007B69DBB203F07F03DAB20F4B1A707B6974
:10064C00DB09DBB203F07F03DAB20C4B1A700B4BF5
:10065C001B787B617B691B02074A127813437B6111
:10066C007B69DAB2064B1A707B699BB218461C3751
:10067C00BD465DF8047B704729000020280000204F
:10068C002A00002080B58CB000AF0346FB71CC2350
:10069C003B73BA237B73FB79BB7307F10C03032108
:1006AC001846FFF78BFF1C4B1B78FB731B4B1B78FF
:1006BC003B744FF480737B610023BB6100233B626E
:1006CC000023FB6105237B62002387F82830144B41
:1006DC001B7887F82F3097F82F30012B14BF01238C
:1006EC000023DBB21A4640210E4801F01FFC07F133
:1006FC00080307F10C0207F114010B4800F015FC7C
:10070C0097F82F301A464021064801F00FFC00BF25
:10071C003037BD4680BD00BF2A00002028000020D5
:10072C0039000020000400483C00002080B58CB04B
:10073C0000AF786007F1080307F110020021786818
:10074C0000F0C3FC0346002B17D1002387F82F3091
:10075C000EE097F82F3007F13002134413F8283CC1
:10076C001846FFF77FFE97F82F30013387F82F30AC
:10077C0097F82F203B6A9A42EBD300BF3037BD4627
:10078C0080BD000080B58AB000AF00F050F900F0D9
:10079C003DF8FFF797FDFFF713FD002240211948A4
:1007AC0001F0C4FB00237B610023BB610123FB61CF
:1007BC0000233B6000237B600023BB600023FB60B5
:1007CC0000233B6101233B620E237B623B461946AF
:1007DC000D4800F09CFA0346002B01D000F067F89E
:1007EC00094800F05EFB0346002B01D000F05FF8D7
:1007FC000221054800F08BFD0346002B01D000F0D0
:10080C0056F8FEE7000400483C00002080B596B086
:10081C0000AF07F1140344220021184602F044FFF4
:10082C003B4600221A605A609A60DA601A614FF4F3
:10083C00007001F0A1FB0346002B01D000F037F84B
:10084C0002237B614FF480733B6210237B62022393
:10085C00FB6302233B6401237B640A23BB640723F1
:10086C00FB6402233B6502237B6507F114031846E6
:10087C0001F0D8FB0346002B01D000F018F80F2331
:10088C003B6003237B600023BB600023FB600023E1
:10089C003B613B460421184601F0D6FF0346002B72
:1008AC0001D000F004F800BF5837BD4680BD80B4BD
:1008BC0000AF72B600BFFEE780B483B000AF0F4B41
:1008CC001B6E0E4A43F0010313660C4B1B6E03F0B8
:1008DC0001037B607B68094B9B6D084A43F0805396
:1008EC009365064B9B6D03F080533B603B6800BFE8
:1008FC000C37BD465DF8047B704700BF001002400A
:10090C0080B400AFFEE780B400AFFEE780B400AF68
:10091C00FEE780B400AFFEE780B400AFFEE780B422
:10092C0000AF00BFBD465DF8047B704780B400AFDC
:10093C0000BFBD465DF8047B704780B400AF00BFBC
:10094C00BD465DF8047B704780B500AF00F0C4F87D
:10095C0000BF80BD80B500AF024801F0BDF800BFFC
:10096C0080BD00BF0401002080B500AF024801F03B
:10097C00B3F800BF80BD00BFD001002080B500AF30
:10098C00024802F04DF900BF80BD00BF6C00002092
:10099C0080B500AF024802F0B3FA00BF80BD00BFC3
:1009AC001802002080B500AF024800F0D6FC00BF52
:1009BC0080BD00BF3C00002080B400AF064BD3F8D4
:1009CC008830054A43F47003C2F8883000BFBD4636
:1009DC005DF8047B704700BF00ED00E0DFF834D019
:1009EC00FFF7EAFF0C480D490D4A002302E0D458EA
:1009FC00C4500433C4188C42F9D30A4A0A4C00235D
:100A0C0001E013600432A242FBD302F029FEFFF78F
:100A1C00B9FEFEE700C00020000000200C00002002
:100A2C00243700080C000020A0020020FEE780B54F
:100A3C0082B000AF0023FB71032000F08DFF0F206C
:100A4C0000F00EF80346002B02D00123FB7101E0ED
:100A5C00FFF732FFFB7918460837BD4680BD000012
:100A6C0080B584B000AF78600023FB73174B1B7804
:100A7C00002B23D0164B1A68144B1B7819464FF4D5
:100A8C007A73B3FBF1F3B2FBF3F3184600F099FF62
:100A9C000346002B0FD17B680F2B09D800227968F5
:100AAC004FF0FF3000F063FF0A4A7B68136007E0E9
:100ABC000123FB7304E00123FB7301E00123FB73AF
:100ACC00FB7B18461037BD4680BD00BF08000020D8
:100ADC00000000200400002080B400AF064B1B78FF
:100AEC001A46064B1B681344044A136000BFBD46EC
:100AFC005DF8047B704700BF080000209C020020BA
:100B0C0080B400AF034B1B681846BD465DF8047BF0
:100B1C00704700BF9C02002080B584B000AF7860A5
:100B2C007B68002B01D10123EDE07B6893F820302A
:100B3C00DBB2002B02D17868FFF778FB7B681B686F
:100B4C001A687B681B6842F001021A60FFF7D8FF35
:100B5C00F86012E0FFF7D4FF0246FB68D31A0A2BA9
:100B6C000BD97B685B6A43F400327B685A627B6802
:100B7C00052283F820200123C5E07B681B685B6895
:100B8C0003F00103002BE5D07B681B681A687B68B7
:100B9C001B6822F002021A60FFF7B2FFF86012E045
:100BAC00FFF7AEFF0246FB68D31A0A2B0BD97B6802
:100BBC005B6A43F400327B685A627B68052283F8D7
:100BCC00202001239FE07B681B685B6803F0020315
:100BDC00002BE5D17B681B7E012B08D17B681B6841
:100BEC001A687B681B6842F080021A6007E07B6819
:100BFC001B681A687B681B6822F080021A607B688D
:100C0C005B7E012B08D17B681B681A687B681B68AC
:100C1C0042F040021A6007E07B681B681A687B6828
:100C2C001B6822F040021A607B689B7E012B08D166
:100C3C007B681B681A687B681B6842F020021A608C
:100C4C0007E07B681B681A687B681B6822F020022F
:100C5C001A607B68DB7E012B08D17B681B681A68E5
:100C6C007B681B6822F010021A6007E07B681B6827
:100C7C001A687B681B6842F010021A607B681B7F45
:100C8C00012B08D17B681B681A687B681B6842F0D3
:100C9C0008021A6007E07B681B681A687B681B688F
:100CAC0022F008021A607B685B7F012B08D17B68FD
:100CBC001B681A687B681B6842F004021A6007E024
:100CCC007B681B681A687B681B6822F004021A6038
:100CDC007B689A687B68DB681A437B681B691A43DC
:100CEC007B685B6942EA03017B685B685A1E7B6820
:100CFC001B680A43DA617B6800225A627B68012216
:100D0C0083F82020002318461037BD4680BD80B4E0
:100D1C0087B000AF786039607B681B687B617B684B
:100D2C0093F82030FB74FB7C012B03D0FB7C022B53
:100D3C0040F0AA807B69D3F8003243F001027B6952
:100D4C00C3F800223B685B6903F01F03012202FA1F
:100D5C0003F3FB607B69D3F81C22FB68DB431A406E
:100D6C007B69C3F81C223B68DB69002B23D17B69B0
:100D7C00D3F80C22FB68DB431A407B69C3F80C22C6
:100D8C003B68DB6819043B685B689BB23A68526944
:100D9C0019437B69483243F832103B689B6819044D
:100DAC003B681B689AB23B685B690A4379694833B4
:100DBC00DB000B445A603B68DB69012B22D17B6959
:100DCC00D3F80C22FB681A437B69C3F80C223B68EE
:100DDC001B6819043B685B689BB23A6852691943FB
:100DEC007B69483243F832103B689B6819043B68B6
:100DFC00DB689AB23B685B690A4379694833DB006C
:100E0C000B445A603B689B69002B09D17B69D3F872
:100E1C000422FB68DB431A407B69C3F8042207E019
:100E2C007B69D3F80422FB681A437B69C3F804225C
:100E3C003B681B69002B09D17B69D3F81422FB6832
:100E4C00DB431A407B69C3F8142207E07B69D3F8B3
:100E5C001422FB681A437B69C3F814223B681B6A93
:100E6C00012B07D17B69D3F81C22FB681A437B69E1
:100E7C00C3F81C227B69D3F8003223F001027B6992
:100E8C00C3F80022002306E07B685B6A43F48022EF
:100E9C007B685A62012318461C37BD465DF8047BFB
:100EAC00704780B584B000AF78607B6893F82030D1
:100EBC00DBB2012B2ED17B68022283F820207B68C9
:100ECC001B681A687B681B6822F001021A60FFF726
:100EDC0017FEF86012E0FFF713FE0246FB68D31A08
:100EEC000A2B0BD97B685B6A43F400327B685A622D
:100EFC007B68052283F82020012312E07B681B68A5
:100F0C005B6803F00103002BE5D17B6800225A6279
:100F1C00002306E07B685B6A43F400227B685A621C
:100F2C00012318461037BD4680BD80B489B000AF90
:100F3C00F860B9607A603B60FB6893F82030FB770F
:100F4C00FB681B689B68BB61FB7F012B03D0FB7F9D
:100F5C00022B40F0AD80BB6903F08063002B0AD1FB
:100F6C00BB6903F00063002B05D1BB6903F0805310
:100F7C00002B00F09580BB691B0E03F003037B6113
:100F8C0001227B699A403B681A60BB689B68002B06
:100F9C000DD1BB681B685A05BB68DB68F96809682A
:100FAC001A437B6918331B010B441A600FE0BB68B2
:100FBC005B68DA00BB689B681A43BB68DB68F9683E
:100FCC0009681A437B6918331B010B441A60FB68D0
:100FDC001968BB681A697B6918331B010B4404330D
:100FEC001A60BB681B7D012B11D1FB681A687B69E9
:100FFC0018331B01134404331B68FA68116843F45B
:10100C0080727B6918331B010B4404331A607B68B4
:10101C0007331B781A067B6806331B781B041A43AC
:10102C007B6805331B781B0213437A6804321278F1
:10103C001046FA68116843EA00027B691B010B44F5
:10104C0003F5C6731A607B6803331B781A067B683A
:10105C0002331B781B041A437B6801331B781B0279
:10106C0013437A6812781046FA68116843EA000252
:10107C007B691B010B4403F5C4731A60FB681A6887
:10108C007B6918331B0113441B68FA68116843F021
:10109C0001027B6918331B010B441A6000230EE01C
:1010AC00FB685B6A43F40012FB685A62012306E09A
:1010BC00FB685B6A43F48022FB685A620123184682
:1010CC002437BD465DF8047B704780B487B000AF11
:1010DC00F860B9607A603B60FB6893F82030FB7570
:1010EC00FB7D012B03D0FB7D022B40F00381BB6801
:1010FC00002B0ED1FB681B68DB6803F00303002B8D
:10110C0016D1FB685B6A43F40012FB685A62012338
:10111C00F7E0FB681B681B6903F00303002B07D186
:10112C00FB685B6A43F40012FB685A620123E8E037
:10113C00FB681A68BB681B331B0113441B6803F064
:10114C0004027B689A607B689B68002B0CD1FB685F
:10115C001A68BB681B331B0113441B685B0DC3F37C
:10116C000A027B681A600BE0FB681A68BB681B33C9
:10117C001B0113441B68DB0823F060427B685A6038
:10118C00FB681A68BB681B331B0113441B6803F014
:10119C0002027B68DA60FB681A68BB681B331B01B0
:1011AC00134404331B6803F00803002B03D07B6843
:1011BC0008221A610BE0FB681A68BB681B331B0121
:1011CC00134404331B6803F00F027B681A61FB683D
:1011DC001A68BB681B331B01134404331B681B0ABE
:1011EC00DAB27B689A61FB681A68BB681B331B0117
:1011FC00134404331B681B0C9AB27B685A61FB685E
:10120C001A68BB681B01134403F5DC731B68DAB264
:10121C003B681A70FB681A68BB681B01134403F522
:10122C00DC731B681A0A3B680133D2B21A70FB6874
:10123C001A68BB681B01134403F5DC731B681A0C9A
:10124C003B680233D2B21A70FB681A68BB681B0188
:10125C00134403F5DC731B681A0E3B680333D2B2DC
:10126C001A70FB681A68BB681B01134403F5DE7324
:10127C001A683B680433D2B21A70FB681A68BB68F0
:10128C001B01134403F5DE731B681A0A3B68053314
:10129C00D2B21A70FB681A68BB681B01134403F5C1
:1012AC00DE731B681A0C3B680633D2B21A70FB68EB
:1012BC001A68BB681B01134403F5DE731B681A0E16
:1012CC003B680733D2B21A70BB68002B08D1FB689D
:1012DC001B68DA68FB681B6842F02002DA6007E0E2
:1012EC00FB681B681A69FB681B6842F020021A61D4
:1012FC00002306E0FB685B6A43F48022FB685A62B9
:10130C00012318461C37BD465DF8047B704780B43A
:10131C0085B000AF786039607B6893F82030FB7340
:10132C00FB7B012B02D0FB7B022B09D17B681B685A
:10133C0059697B681B683A680A435A61002306E0C6
:10134C007B685B6A43F480227B685A6201231846EF
:10135C001437BD465DF8047B704780B58AB000AF8A
:10136C00786000237B627B681B685B693B627B68EF
:10137C001B685B68FB617B681B689B68BB617B6857
:10138C001B68DB687B617B681B681B693B617B6846
:10139C001B689B69FB603B6A03F00103002B7CD04C
:1013AC00BB6903F00103002B23D07B681B6801226F
:1013BC009A60BB6903F00203002B03D0786800F03D
:1013CC0083F916E0BB6903F00403002B04D07B6A9D
:1013DC0043F400637B620CE0BB6903F00803002B51
:1013EC0004D07B6A43F480537B6202E0786800F09F
:1013FC0089F9BB6903F48073002B24D07B681B68CC
:10140C004FF480729A60BB6903F40073002B03D015
:10141C00786800F063F916E0BB6903F48063002B75
:10142C0004D07B6A43F400537B620CE0BB6903F489
:10143C000063002B04D07B6A43F480437B6202E0A0
:10144C00786800F069F9BB6903F48033002B24D071
:10145C007B681B684FF480329A60BB6903F40033DD
:10146C00002B03D0786800F043F916E0BB6903F455
:10147C008023002B04D07B6A43F400437B620CE096
:10148C00BB6903F40023002B04D07B6A43F4803344
:10149C007B6202E0786800F049F93B6A03F00803CC
:1014AC00002B0CD07B6903F01003002B07D07B6A58
:1014BC0043F400737B627B681B681022DA603B6A22
:1014CC0003F00403002B0BD07B6903F00803002B03
:1014DC0006D07B681B680822DA60786800F030F967
:1014EC003B6A03F00203002B09D07B681B68DB68A6
:1014FC0003F00303002B02D07868FFF717F93B6A5F
:10150C0003F04003002B0CD03B6903F01003002BBD
:10151C0007D07B6A43F480637B627B681B68102274
:10152C001A613B6A03F02003002B0BD03B6903F0DC
:10153C000803002B06D07B681B6808221A617868A8
:10154C0000F012F93B6A03F01003002B09D07B6802
:10155C001B681B6903F00303002B02D0786800F0B2
:10156C00F9F83B6A03F40033002B0BD0FB6903F052
:10157C001003002B06D07B681B6810225A60786819
:10158C0000F0FCF83B6A03F48033002B0BD0FB69B2
:10159C0003F00803002B06D07B681B6808225A60F6
:1015AC00786800F0F5F83B6A03F40043002B7BD01D
:1015BC00FB6903F00403002B72D03B6A03F48073C5
:1015CC00002B08D0FB6803F00103002B03D07B6ACF
:1015DC0043F001037B623B6A03F40073002B08D0D9
:1015EC00FB6803F00203002B03D07B6A43F0020379
:1015FC007B623B6A03F48063002B08D0FB6803F02A
:10160C000403002B03D07B6A43F004037B623B6A28
:10161C0003F40063002B43D0FB6803F07003002B32
:10162C003ED0FB6803F07003602B2BD0602B2ED8C0
:10163C00502B22D0502B2AD8402B19D0402B26D8F7
:10164C00302B10D0302B22D8102B02D0202B05D0D1
:10165C001DE07B6A43F008037B6219E07B6A43F070
:10166C0010037B6214E07B6A43F020037B620FE083
:10167C007B6A43F040037B620AE07B6A43F08003A1
:10168C007B6205E07B6A43F480737B6200E000BF01
:10169C007B681B689A697B681B6822F070029A61F0
:1016AC007B681B6804225A607B6A002B08D07B681D
:1016BC005A6A7B6A1A437B685A62786800F072F83F
:1016CC0000BF2837BD4680BD80B483B000AF7860C2
:1016DC0000BF0C37BD465DF8047B704780B483B007
:1016EC0000AF786000BF0C37BD465DF8047B7047D7
:1016FC0080B483B000AF786000BF0C37BD465DF896
:10170C00047B704780B483B000AF786000BF0C37A7
:10171C00BD465DF8047B704780B483B000AF786041
:10172C0000BF0C37BD465DF8047B704780B483B0B6
:10173C0000AF786000BF0C37BD465DF8047B704786
:10174C0080B483B000AF786000BF0C37BD465DF845
:10175C00047B704780B483B000AF786000BF0C3757
:10176C00BD465DF8047B704780B483B000AF7860F1
:10177C0000BF0C37BD465DF8047B704780B483B066
:10178C0000AF786000BF0C37BD465DF8047B704736
:10179C0080B483B000AF786000BF0C37BD465DF8F5
:1017AC00047B704780B483B000AF786000BF0C3707
:1017BC00BD465DF8047B704780B485B000AF78609F
:1017CC007B6803F00703FB600C4BDB68BB60BA68FB
:1017DC004FF6FF031340BB60FB681A02BB68134350
:1017EC0043F0BF6343F40033BB60044ABB68D3606F
:1017FC0000BF1437BD465DF8047B704700ED00E078
:10180C0080B400AF044BDB681B0A03F007031846D7
:10181C00BD465DF8047B704700ED00E080B483B0FA
:10182C0000AF0346FB7197F90730002B0BDBFB79FC
:10183C0003F01F02074997F907305B09012000FAF2
:10184C0002F241F8232000BF0C37BD465DF8047B43
:10185C00704700BF00E100E080B483B000AF0346E6
:10186C003960FB7197F90730002B0ADB3B68DAB261
:10187C000C4997F907301201D2B20B4483F80023BC
:10188C000AE03B68DAB20849FB7903F00F03043B2A
:10189C001201D2B20B441A7600BF0C37BD465DF86C
:1018AC00047B704700E100E000ED00E080B489B0FB
:1018BC0000AFF860B9607A60FB6803F00703FB6166
:1018CC00FB69C3F10703042B28BF0423BB61FB692D
:1018DC000433062B02D9FB69033B00E000237B6138
:1018EC004FF0FF32BB6902FA03F3DA43BB681A40CC
:1018FC007B699A404FF0FF317B6901FA03F3D943BE
:10190C007B680B40134318462437BD465DF8047BB7
:10191C007047000080B582B000AF78607B68013BF7
:10192C00B3F1807F01D301230FE00A4A7B68013BAE
:10193C0053600F214FF0FF30FFF78EFF054B002255
:10194C009A60044B07221A60002318460837BD46DC
:10195C0080BD00BF10E000E080B582B000AF7860C1
:10196C007868FFF729FF00BF0837BD4680BD80B5FA
:10197C0086B000AF0346B9607A60FB7300237B61CD
:10198C00FFF73EFF78617A68B9687869FFF78EFFD8
:10199C00024697F90F3011461846FFF75DFF00BF5E
:1019AC001837BD4680BD80B582B000AF0346FB71D1
:1019BC0097F907301846FFF731FF00BF0837BD46CF
:1019CC0080BD80B582B000AF78607868FFF7A2FF69
:1019DC00034618460837BD4680BD80B485B000AFBD
:1019EC0078600023FB737B6893F82530DBB2022B05
:1019FC0008D07B680422DA637B68002283F82420F9
:101A0C00012322E07B681B681A687B681B6822F044
:101A1C000E021A607B681B681A687B681B6822F0D0
:101A2C0001021A607B685B6C03F01C027B681B6C08
:101A3C00012101FA02F25A607B68012283F8252009
:101A4C007B68002283F82420FB7B18461437BD46A4
:101A5C005DF8047B704780B584B000AF78600023DC
:101A6C00FB737B6893F82530DBB2022B05D07B68C7
:101A7C000422DA630123FB7329E07B681B681A6874
:101A8C007B681B6822F00E021A607B681B681A6860
:101A9C007B681B6822F001021A607B685B6C03F0A8
:101AAC001C027B681B6C012101FA02F25A607B68F4
:101ABC00012283F825207B68002283F824207B6890
:101ACC009B6B002B03D07B689B6B78689847FB7BE8
:101ADC0018461037BD4680BD80B584B000AF786025
:101AEC007B681B6C1B68FB607B681B681B68BB609E
:101AFC007B685B6C03F01C0304229A40FB68134068
:101B0C00002B26D0BB6803F00403002B21D07B688C
:101B1C001B681B6803F02003002B07D17B681B6834
:101B2C001A687B681B6822F004021A607B685B6C85
:101B3C0003F01C027B681B6C042101FA02F25A6050
:101B4C007B681B6B002B71D07B681B6B786898478C
:101B5C006CE07B685B6C03F01C0302229A40FB6810
:101B6C001340002B2ED0BB6803F00203002B29D0AE
:101B7C007B681B681B6803F02003002B0BD17B6870
:101B8C001B681A687B681B6822F00A021A607B6863
:101B9C00012283F825207B685B6C03F01C027B68B8
:101BAC001B6C022101FA02F25A607B68002283F856
:101BBC0024207B68DB6A002B38D07B68DB6A786872
:101BCC00984733E07B685B6C03F01C0308229A4057
:101BDC00FB681340002B2AD0BB6803F00803002BD2
:101BEC0025D07B681B681A687B681B6822F00E0284
:101BFC001A607B685B6C03F01C027B681B6C012118
:101C0C0001FA02F25A607B680122DA637B680122D6
:101C1C0083F825207B68002283F824207B685B6B8B
:101C2C00002B04D07B685B6B7868984700BF00BFC3
:101C3C001037BD4680BD000080B487B000AF78601F
:101C4C00396000237B6154E13B681A6801217B6990
:101C5C0001FA03F31340FB60FB68002B00F0468194
:101C6C003B685B6803F00303012B05D03B685B68A2
:101C7C0003F00303022B30D17B689B683B617B69CB
:101C8C005B00032202FA03F3DB433A6913403B6126
:101C9C003B68DA687B695B0002FA03F33A69134329
:101CAC003B617B683A699A607B685B683B610122A7
:101CBC007B6902FA03F3DB433A6913403B613B68EF
:101CCC005B681B0903F001027B6902FA03F33A69B2
:101CDC0013433B617B683A695A603B685B6803F06D
:101CEC000303032B17D07B68DB683B617B695B00CC
:101CFC00032202FA03F3DB433A6913403B613B686E
:101D0C009A687B695B0002FA03F33A6913433B61FF
:101D1C007B683A69DA603B685B6803F00303022B6B
:101D2C0023D17B69DA087B68083253F822303B6197
:101D3C007B6903F007039B000F2202FA03F3DB43DA
:101D4C003A6913403B613B681A697B6903F00703EE
:101D5C009B0002FA03F33A6913433B617B69DA088F
:101D6C007B680832396943F822107B681B683B6139
:101D7C007B695B00032202FA03F3DB433A691340ED
:101D8C003B613B685B6803F003027B695B0002FA12
:101D9C0003F33A6913433B617B683A691A603B6809
:101DAC005B6803F44033002B00F0A080584B1B6E93
:101DBC00574A43F001031366554B1B6E03F00103A6
:101DCC00BB60BB68534A7B699B08023352F82330D3
:101DDC003B617B6903F003039B000F2202FA03F3C0
:101DEC00DB433A6913403B617B68B3F1904F19D0E8
:101DFC007B68494A934213D07B68484A93420DD082
:101E0C007B68474A934207D07B68464A934201D18C
:101E1C00042308E0072306E0032304E0022302E086
:101E2C00012300E000237A6902F003029200934040
:101E3C003A6913433B6137497B699B0802333A6922
:101E4C0041F82320384B9B683B61FB68DB433A69C4
:101E5C0013403B613B685B6803F48013002B03D099
:101E6C003A69FB6813433B612F4A3B6993602E4BE5
:101E7C00DB683B61FB68DB433A6913403B613B68C1
:101E8C005B6803F40013002B03D03A69FB6813431F
:101E9C003B61254A3B69D360234B5B683B61FB6824
:101EAC00DB433A6913403B613B685B6803F40033E6
:101EBC00002B03D03A69FB6813433B611A4A3B6918
:101ECC005360194B1B683B61FB68DB433A69134059
:101EDC003B613B685B6803F48033002B03D03A69A9
:101EEC00FB6813433B61104A3B6913607B69013308
:101EFC007B613B681A687B6922FA03F3002B7FF441
:101F0C00A3AE00BF00BF1C37BD465DF8047B704715
:101F1C000010024000000140000400480008004886
:101F2C00000C0048001000480004014080B483B04D
:101F3C0000AF78600B467B8013467B707B78002B60
:101F4C0003D07A887B689A6102E07A887B689A620F
:101F5C0000BF0C37BD465DF8047B704780B400AF02
:101F6C00044B1B6803F4C0631846BD465DF8047B44
:101F7C00704700BF0070004080B485B000AF78603F
:101F8C007B68B3F5007F30D1234B1B6803F4C0632F
:101F9C00B3F5007F38D0204B1B6823F4C0631E4A76
:101FAC0043F4007313601D4B1B68322202FB03F3D6
:101FBC001B4AA2FB03239B0C0133FB6002E0FB6872
:101FCC00013BFB60144B5B6903F48063B3F5806FDA
:101FDC0002D1FB68002BF2D10F4B5B6903F48063D9
:101FEC00B3F5806F10D103230FE00B4B1B6803F488
:101FFC00C063B3F5806F07D0074B1B6823F4C06335
:10200C00054A43F480631360002318461437BD4619
:10201C005DF8047B704700BF00700040000000209A
:10202C0083DE1B4380B588B000AF78607B68002BE3
:10203C0001D10123FEE3A14B9B6803F00C03BB61B0
:10204C009E4BDB6803F003037B617B681B6803F02A
:10205C001003002B00F0E480BB69002B07D0BB6998
:10206C000C2B40F08B807B69012B40F08780934BCD
:10207C001B6803F00203002B05D07B689B69002BC7
:10208C0001D10123D6E37B681A6A8C4B1B6803F0E1
:10209C000803002B04D0894B1B6803F0F00305E008
:1020AC00864BD3F894301B0903F0F003934223D2F0
:1020BC007B681B6A184600F053FD0346002B01D0C9
:1020CC000123B7E37D4B1B687C4A43F00803136084
:1020DC007A4B1B6823F0F0027B681B6A7749134329
:1020EC000B60764B5B6823F47F427B68DB691B02D9
:1020FC00724913434B6025E0704B1B686F4A43F0E9
:10210C00080313606D4B1B6823F0F0027B681B6A9D
:10211C006A4913430B60694B5B6823F47F427B680D
:10212C00DB691B02654913434B60BB69002B09D16A
:10213C007B681B6A184600F013FD0346002B01D088
:10214C00012377E300F080FC02465C4B9B681B0983
:10215C0003F00F035A49CB5C03F01F0322FA03F37D
:10216C00584A1360584B1B681846FEF779FC034617
:10217C00FB73FB7B002B52D0FB7B5BE37B689B6987
:10218C00002B32D04D4B1B684C4A43F001031360BB
:10219C00FEF7B6FC386108E0FEF7B2FC02463B697C
:1021AC00D31A022B01D9032344E3444B1B6803F0DD
:1021BC000203002BF0D0414B1B68404A43F008034C
:1021CC0013603E4B1B6823F0F0027B681B6A3B4993
:1021DC0013430B60394B5B6823F47F427B68DB69EC
:1021EC001B02364913434B601AE0344B1B68334ACD
:1021FC0023F001031360FEF783FC386108E0FEF75F
:10220C007FFC02463B69D31A022B01D9032311E34D
:10221C002A4B1B6803F00203002BF0D100E000BF37
:10222C007B681B6803F00103002B74D0BB69082B7F
:10223C0005D0BB690C2B0ED17B69032B0BD11F4B2B
:10224C001B6803F40033002B64D07B685B68002BA5
:10225C0060D10123EEE27B685B68B3F5803F06D169
:10226C00164B1B68154A43F4803313601DE07B68E2
:10227C005B68B3F5A02F0CD1104B1B680F4A43F4CD
:10228C00802313600D4B1B680C4A43F4803313609E
:10229C000BE00A4B1B68094A23F480331360074B8D
:1022AC001B68064A23F4802313607B685B68002B51
:1022BC001CD0FEF725FC386111E000BF0010024075
:1022CC00DC3600080000002004000020FEF718FC9B
:1022DC0002463B69D31A642B01D90323AAE2AF4B04
:1022EC001B6803F40033002BF0D014E0FEF708FC5D
:1022FC00386108E0FEF704FC02463B69D31A642BF4
:10230C0001D9032396E2A54B1B6803F40033002B81
:10231C00F0D100E000BF7B681B6803F00203002BC8
:10232C0060D0BB69042B05D0BB690C2B19D17B6920
:10233C00022B16D1994B1B6803F48063002B05D03C
:10234C007B68DB68002B01D1012373E2934B5B6844
:10235C0023F0F8527B681B691B06904913434B60B2
:10236C0040E07B68DB68002B23D08C4B1B688B4ACE
:10237C0043F480731360FEF7C3FB386108E0FEF78B
:10238C00BFFB02463B69D31A022B01D9032351E24E
:10239C00824B1B6803F48063002BF0D07F4B5B688F
:1023AC0023F0F8527B681B691B067C4913434B6076
:1023BC0018E07A4B1B68794A23F480731360FEF79C
:1023CC009FFB386108E0FEF79BFB02463B69D31A82
:1023DC00022B01D903232DE2704B1B6803F480639D
:1023EC00002BF0D17B681B6803F00803002B3CD05A
:1023FC007B685B69002B1CD0684BD3F89430674A20
:10240C0043F00103C2F89430FEF77AFB386108E020
:10241C00FEF776FB02463B69D31A022B01D9032344
:10242C0008E25E4BD3F8943003F00203002BEFD09C
:10243C001BE05A4BD3F89430584A23F00103C2F8EE
:10244C009430FEF75DFB386108E0FEF759FB02465D
:10245C003B69D31A022B01D90323EBE14F4BD3F881
:10246C00943003F00203002BEFD17B681B6803F060
:10247C000403002B00F0A6800023FB77474B9B6DD9
:10248C0003F08053002B0DD1444B9B6D434A43F01A
:10249C0080539365414B9B6D03F08053BB60BB68CD
:1024AC000123FB773E4B1B6803F48073002B18D180
:1024BC003B4B1B683A4A43F480731360FEF720FBD6
:1024CC00386108E0FEF71CFB02463B69D31A022B6D
:1024DC0001D90323AEE1324B1B6803F48073002B4C
:1024EC00F0D07B689B68012B08D12C4BD3F8903033
:1024FC002A4A43F00103C2F8903024E07B689B68C1
:10250C00052B10D1254BD3F89030244A43F004030B
:10251C00C2F89030214BD3F89030204A43F001039D
:10252C00C2F890300FE01D4BD3F890301B4A23F0CB
:10253C000103C2F89030194BD3F89030174A23F0AE
:10254C000403C2F890307B689B68002B16D0FEF712
:10255C00D7FA38610AE0FEF7D3FA02463B69D31A80
:10256C0041F28832934201D9032363E10B4BD3F838
:10257C00903003F00203002BEDD01AE0FEF7C0FA06
:10258C0038610FE0FEF7BCFA02463B69D31A41F200
:10259C008832934206D903234CE100BF001002405D
:1025AC0000700040A54BD3F8903003F00203002BD1
:1025BC00E8D1FB7F012B05D1A04B9B6D9F4A23F0EB
:1025CC00805393657B681B6803F02003002B3CD081
:1025DC007B685B6A002B1CD0984BD3F89830974AD9
:1025EC0043F00103C2F89830FEF78AFA386108E02C
:1025FC00FEF786FA02463B69D31A022B01D9032354
:10260C0018E18E4BD3F8983003F00203002BEFD077
:10261C001BE08A4BD3F89830884A23F00103C2F8A8
:10262C009830FEF76DFA386108E0FEF769FA024659
:10263C003B69D31A022B01D90323FBE07F4BD3F860
:10264C00983003F00203002BEFD17B689B6A002BC0
:10265C0000F0EF807B689B6A022B40F0C580774BC3
:10266C00DB687B617B6903F003027B68DB6A9A425F
:10267C002CD17B6903F070027B681B6B013B1B0147
:10268C009A4223D17B6903F4FE427B685B6B1B028D
:10269C009A421BD17B6903F078427B689B6BDB060B
:1026AC009A4213D17B6903F4C0027B68DB6B5B0835
:1026BC00013B5B059A4209D17B6903F0C0627B68E0
:1026CC001B6C5B08013B5B069A4267D0BB690C2B09
:1026DC0062D05A4B1B6803F08063002B01D001239E
:1026EC00A8E0564B1B68554A23F080731360FEF725
:1026FC0007FA386108E0FEF703FA02463B69D31A81
:10270C00022B01D9032395E04C4B1B6803F000739B
:10271C00002BF0D1494BDA68494B13407A68D16AE7
:10272C007A68126B013A120111437A68526B1202E9
:10273C0011437A68D26B5208013A520511437A68F8
:10274C00126C5208013A520611437A68926BD20607
:10275C000A433A491343CB60384B1B68374A43F062
:10276C0080731360354BDB68344A43F08073D3605D
:10277C00FEF7C6F9386108E0FEF7C2F902463B697C
:10278C00D31A022B01D9032354E02C4B1B6803F002
:10279C000073002BF0D04CE001234BE0274B1B685F
:1027AC0003F00073002B44D1244B1B68234A43F0E5
:1027BC0080731360214BDB68204A43F08073D36035
:1027CC00FEF79EF9386108E0FEF79AF902463B697C
:1027DC00D31A022B01D903232CE0184B1B6803F0EE
:1027EC000073002BF0D024E0BB690C2B1FD0134BD3
:1027FC001B68124A23F080731360FEF781F938616D
:10280C0008E0FEF77DF902463B69D31A022B01D989
:10281C0003230FE0094B1B6803F00073002BF0D16E
:10282C00064BDA680549074B1340CB6001E00123E6
:10283C0000E0002318462037BD4680BD0010024042
:10284C008C809D01FCFFEEFE80B584B000AF7860FB
:10285C0039607B68002B01D10123E7E0754B1B68C5
:10286C0003F007033A689A4210D9724B1B6823F0A5
:10287C00070270493B6813430B606E4B1B6803F0F7
:10288C0007033A689A4201D00123CFE07B681B68AA
:10289C0003F00203002B10D07B689A68664B9B6890
:1028AC0003F0F0039A4208D9634B9B6823F0F002C3
:1028BC007B689B68604913438B607B681B6803F0E3
:1028CC000103002B4CD07B685B68032B07D15A4B60
:1028DC001B6803F00073002B21D10123A6E07B6859
:1028EC005B68022B07D1544B1B6803F40033002B9D
:1028FC0015D101239AE07B685B68002B07D14E4B06
:10290C001B6803F00203002B09D101238EE04A4B14
:10291C001B6803F48063002B01D1012386E0464B36
:10292C009B6823F003027B685B68434913438B600D
:10293C00FEF7E6F8F8600AE0FEF7E2F80246FB68FC
:10294C00D31A41F28832934201D903236EE03A4BF9
:10295C009B6803F00C027B685B689B009A42EBD18E
:10296C007B681B6803F00203002B10D07B689A680D
:10297C00314B9B6803F0F0039A4208D22E4B9B68B4
:10298C0023F0F0027B689B682B4913438B60294B27
:10299C001B6803F007033A689A4210D2254B1B6858
:1029AC0023F0070223493B6813430B60214B1B6840
:1029BC0003F007033A689A4201D0012336E07B68A2
:1029CC001B6803F00403002B08D01B4B9B6823F4FB
:1029DC00E0627B68DB68184913438B607B681B687B
:1029EC0003F00803002B09D0134B9B6823F46052AF
:1029FC007B681B69DB00104913438B6000F024F8E3
:102A0C0002460D4B9B681B0903F00F030B49CB5C73
:102A1C0003F01F0322FA03F3094A1360094B1B68E6
:102A2C001846FEF71DF80346FB72FB7A1846103762
:102A3C00BD4680BD0020024000100240DC3600087C
:102A4C00000000200400002080B489B000AF0023F7
:102A5C00FB610023BB613E4B9B6803F00C033B61A5
:102A6C003B4BDB6803F00303FB603B69002B05D099
:102A7C003B690C2B21D1FB68012B1ED1344B1B68FD
:102A8C0003F00803002B07D1314BD3F894301B0A09
:102A9C0003F00F03FB6105E02D4B1B681B0903F0D2
:102AAC000F03FB612B4AFB6952F82330FB613B6936
:102ABC00002B0DD1FB69BB610AE03B69042B02D1F1
:102ACC00254BBB6104E03B69082B01D1234BBB6157
:102ADC003B690C2B34D11E4BDB6803F00303BB604A
:102AEC00BB68022B03D0BB68032B03D005E01A4B49
:102AFC007B6105E0194B7B6102E0FB697B6100BFE8
:102B0C00134BDB681B0903F0070301337B60104B8D
:102B1C00DB681B0A03F07F037A6902FB03F27B6814
:102B2C00B2FBF3F37B610A4BDB685B0E03F0030330
:102B3C0001335B003B607A693B68B2FBF3F3BB612A
:102B4C00BB6918462437BD465DF8047B704700BF4F
:102B5C0000100240EC3600080024F40000127A0049
:102B6C0080B586B000AF786000233B612A4B9B6D2B
:102B7C0003F08053002B03D0FFF7F0F9786114E0D9
:102B8C00254B9B6D244A43F080539365224B9B6DE0
:102B9C0003F08053FB60FB68FFF7E0F978611E4B94
:102BAC009B6D1D4A23F0805393657B69B3F5007FC1
:102BBC000BD17B68802B19D97B68A02B02D90223FF
:102BCC003B6113E001233B6110E07B68802B02D951
:102BDC0003233B610AE07B68802B02D102233B611B
:102BEC0004E07B68702B01D101233B610B4B1B680C
:102BFC0023F0070209493B6913430B60074B1B6821
:102C0C0003F007033A699A4201D0012300E0002344
:102C1C0018461837BD4680BD001002400020024007
:102C2C0080B582B000AF78607B681B681B6903F0CD
:102C3C000203022B22D17B681B68DB6803F00203C2
:102C4C00022B1BD17B681B686FF002021A617B6838
:102C5C0001221A777B681B689B6903F00303002B26
:102C6C0003D0786800F00FF905E0786800F001F9FE
:102C7C00786800F012F97B6800221A777B681B6871
:102C8C001B6903F00403042B22D17B681B68DB68EF
:102C9C0003F00403042B1BD17B681B686FF0040248
:102CAC001A617B6802221A777B681B689B6903F4A4
:102CBC004073002B03D0786800F0E5F805E07868E5
:102CCC0000F0D7F8786800F0E8F87B6800221A77F3
:102CDC007B681B681B6903F00803082B22D17B68F7
:102CEC001B68DB6803F00803082B1BD17B681B688F
:102CFC006FF008021A617B6804221A777B681B68E4
:102D0C00DB6903F00303002B03D0786800F0BBF8F9
:102D1C0005E0786800F0ADF8786800F0BEF87B68E4
:102D2C0000221A777B681B681B6903F01003102BB9
:102D3C0022D17B681B68DB6803F01003102B1BD1BE
:102D4C007B681B686FF010021A617B6808221A7787
:102D5C007B681B68DB6903F44073002B03D0786835
:102D6C0000F091F805E0786800F083F8786800F0DE
:102D7C0094F87B6800221A777B681B681B6903F048
:102D8C000103012B0ED17B681B68DB6803F0010388
:102D9C00012B07D17B681B686FF001021A61786800
:102DAC0000F05DF87B681B681B6903F08003802BC7
:102DBC000ED17B681B68DB6803F08003802B07D186
:102DCC007B681B686FF080021A61786800F083F8EA
:102DDC007B681B681B6903F48073B3F5807F0ED18D
:102DEC007B681B68DB6803F08003802B07D17B6852
:102DFC001B686FF480721A61786800F076F87B6853
:102E0C001B681B6903F04003402B0ED17B681B68C9
:102E1C00DB6803F04003402B07D17B681B686FF025
:102E2C0040021A61786800F042F87B681B681B69E5
:102E3C0003F02003202B0ED17B681B68DB6803F0AA
:102E4C002003202B07D17B681B686FF020021A61CE
:102E5C00786800F036F800BF0837BD4680BD80B4F6
:102E6C0083B000AF786000BF0C37BD465DF8047BC3
:102E7C00704780B483B000AF786000BF0C37BD469C
:102E8C005DF8047B704780B483B000AF786000BFFE
:102E9C000C37BD465DF8047B704780B483B000AF3F
:102EAC00786000BF0C37BD465DF8047B704780B47A
:102EBC0083B000AF786000BF0C37BD465DF8047B73
:102ECC00704780B483B000AF786000BF0C37BD464C
:102EDC005DF8047B704780B483B000AF786000BFAE
:102EEC000C37BD465DF8047B704780B483B000AFEF
:102EFC00786000BF0C37BD465DF8047B704700005E
:102F0C0080B5BAB000AF78607B681B68DB69C7F826
:102F1C00E4307B681B681B68C7F8E0307B681B6873
:102F2C009B68C7F8DC30D7F8E42040F60F03134059
:102F3C00C7F8D830D7F8D830002B15D1D7F8E430F3
:102F4C0003F02003002B0FD0D7F8E03003F0200360
:102F5C00002B09D07B685B6E002B00F0A6827B688F
:102F6C005B6E78689847A0E2D7F8D830002B00F059
:102F7C001781D7F8DC3003F00103002B06D1D7F80A
:102F8C00E020854B1340002B00F00A81D7F8E43089
:102F9C0003F00103002B11D0D7F8E03003F4807359
:102FAC00002B0BD07B681B6801221A627B68D3F85C
:102FBC00803043F001027B68C3F88020D7F8E430FE
:102FCC0003F00203002B11D0D7F8DC3003F001031F
:102FDC00002B0BD07B681B6802221A627B68D3F82B
:102FEC00803043F004027B68C3F88020D7F8E430CB
:102FFC0003F00403002B11D0D7F8DC3003F00103ED
:10300C00002B0BD07B681B6804221A627B68D3F8F8
:10301C00803043F002027B68C3F88020D7F8E4309C
:10302C0003F00803002B17D0D7F8E03003F020038F
:10303C00002B05D1D7F8DC3003F00103002B0BD0AB
:10304C007B681B6808221A627B68D3F8803043F0D7
:10305C0008027B68C3F88020D7F8E43003F40063DF
:10306C00002B12D0D7F8E03003F08063002B0CD08B
:10307C007B681B684FF400621A627B68D3F880305F
:10308C0043F020027B68C3F880207B68D3F8803043
:10309C00002B00F00C82D7F8E43003F02003002B57
:1030AC000DD0D7F8E03003F02003002B07D07B685D
:1030BC005B6E002B03D07B685B6E786898477B68EF
:1030CC00D3F88030C7F8D4307B681B689B6803F05A
:1030DC004003402B05D0D7F8D43003F02803002B45
:1030EC004FD0786800F00EFA7B681B689B6803F081
:1030FC004003402B41D17B681B680833C7F89C30D8
:10310C00D7F89C3053E8003FC7F89830D7F8983080
:10311C0023F04003C7F8D0307B681B680833D7F81E
:10312C00D020C7F8A820C7F8A430D7F8A410D7F837
:10313C00A82041E80023C7F8A030D7F8A030002B16
:10314C00D9D17B681B6F002B13D07B681B6F134A84
:10315C009A637B681B6F1846FEF77DFC0346002BB9
:10316C0017D07B681B6F9B6B7A68126F1046984761
:10317C000FE0786800F0B0F90BE0786800F0ACF97B
:10318C0007E0786800F0A8F97B680022C3F880207B
:10319C008DE100BF8BE100BF20010004D735000892
:1031AC007B681B6E012B40F04681D7F8E43003F0AE
:1031BC001003002B00F03F81D7F8E03003F0100330
:1031CC00002B00F038817B681B6810221A627B6828
:1031DC001B689B6803F04003402B40F0B4807B6875
:1031EC001B6F1B685B68A7F8BE30B7F8BE30002BAE
:1031FC0000F05F817B68B3F85830B7F8BE209A4274
:10320C0080F057817B68B7F8BE20A3F85A207B6802
:10321C001B6F1B681B6803F02003002B40F085809C
:10322C007B681B68C7F88830D7F8883053E8003FB4
:10323C00C7F88430D7F8843023F48073C7F8B830DB
:10324C007B681B681A46D7F8B830C7F89430C7F8B3
:10325C009020D7F89010D7F8942041E80023C7F8B5
:10326C008C30D7F88C30002BDAD17B681B68083394
:10327C007B677B6F53E8003F3B673B6F23F0010399
:10328C00C7F8B4307B681B680833D7F8B420C7F88C
:10329C008020FB67F96FD7F8802041E80023BB67DB
:1032AC00BB6F002BE1D17B681B6808333B663B6E20
:1032BC0053E8003FFB65FB6D23F04003C7F8B030CB
:1032CC007B681B680833D7F8B020FA66BB66B96E0A
:1032DC00FA6E41E800237B667B6E002BE3D17B68A2
:1032EC002022DA677B6800221A667B681B68FB6405
:1032FC00FB6C53E8003FBB64BB6C23F01003C7F8B6
:10330C00AC307B681B681A46D7F8AC30BB657A6565
:10331C00796DBA6D41E800233B653B6D002BE4D120
:10332C007B681B6F1846FEF758FB7B68B3F8582078
:10333C007B68B3F85A309BB2D31A9BB219467868A3
:10334C0000F0D4F8B5E07B68B3F858207B68B3F88C
:10335C005A309BB2D31AA7F8CE307B68B3F85A30E8
:10336C009BB2002B00F0A780B7F8CE30002B00F0FA
:10337C00A2807B681B68BB63BB6B53E8003F7B631D
:10338C007B6B23F49073C7F8C8307B681B681A46B4
:10339C00D7F8C8307B643A64396C7A6C41E8002306
:1033AC00FB63FB6B002BE4D17B681B6808337B62EF
:1033BC007B6A53E8003F3B623B6A23F00103C7F88A
:1033CC00C4307B681B680833D7F8C4203A63FB62AF
:1033DC00F96A3A6B41E80023BB62BB6A002BE3D16C
:1033EC007B682022DA677B6800221A667B680022E1
:1033FC005A667B681B683B613B6953E8003FFB6086
:10340C00FB6823F01003C7F8C0307B681B681A46B2
:10341C00D7F8C030FB61BA61B969FA6941E8002399
:10342C007B617B69002BE4D1B7F8CE301946786804
:10343C0000F05CF83FE0D7F8E43003F48013002B85
:10344C000ED0D7F8DC3003F48003002B08D07B6857
:10345C001B684FF480121A62786800F0F6F82DE0C1
:10346C00D7F8E43003F08003002B0ED0D7F8E0300F
:10347C0003F08003002B08D07B689B6E002B1CD0C4
:10348C007B689B6E7868984717E0D7F8E43003F0B8
:10349C004003002B12D0D7F8E03003F04003002B90
:1034AC000CD0786800F0A7F808E000BF06E000BF79
:1034BC0004E000BF02E000BF00E000BFE837BD46FB
:1034CC0080BD00BF80B483B000AF786000BF0C3704
:1034DC00BD465DF8047B704780B483B000AF786064
:1034EC0000BF0C37BD465DF8047B704780B483B0D9
:1034FC0000AF78600B467B8000BF0C37BD465DF893
:10350C00047B704780B495B000AF78607B681B6813
:10351C007B637B6B53E8003F3B633B6B23F4907303
:10352C00FB647B681B681A46FB6C3B64FA63F96BA3
:10353C003A6C41E80023BB63BB6B002BE6D17B6884
:10354C001B6808333B623B6A53E8003FFB61FB6935
:10355C0023F00103BB647B681B680833BA6CFA6206
:10356C00BB62B96AFA6A41E800237B627B6A002B72
:10357C00E5D17B681B6E012B18D17B681B68FB6047
:10358C00FB6853E8003FBB60BB6823F010037B640F
:10359C007B681B681A467B6CBB617A617969BA6976
:1035AC0041E800233B613B69002BE6D17B6820227C
:1035BC00DA677B6800221A667B6800225A6600BFB5
:1035CC005437BD465DF8047B704780B584B000AFBE
:1035DC0078607B689B6AFB60FB680022A3F85A202A
:1035EC00FB680022A3F85220F868FFF775FF00BFB4
:1035FC001037BD4680BD80B588B000AF78607B6861
:10360C001B68FB60FB6853E8003FBB60BB6823F0A2
:10361C004003FB617B681B681A46FB69BB617A61DE
:10362C007969BA6941E800233B613B69002BE6D11B
:10363C007B6820229A677B6800229A667868FFF77D
:10364C0041FF00BF2037BD4680BD80B483B000AFC2
:10365C00786000BF0C37BD465DF8047B70470000F6
:10366C0070B50D4D0D4C641BA4100026A64209D15B
:10367C000B4D0C4C00F020F8641BA4100026A64245
:10368C0005D170BD55F8043B98470136EEE755F867
:10369C00043B98470136F2E71C3700081C3700083A
:1036AC001C3700082037000802440346934200D11F
:1036BC00704703F8011BF9E7F8B500BFF8BC08BC6C
:1036CC009E467047F8B500BFF8BC08BC9E467047D4
:1036DC0000000000000000000102030406070809B6
:1036EC00A0860100400D0300801A060000350C0076
:1036FC0040420F0080841E0000093D0000127A0039
:10370C000024F40000366E010048E801006CDC0275
:04371C00B1010008EF
:043720008D0100080F
:0C37240000093D00100000000100000042
:04000005080009E9FD
:00000001FF
